:100000000C942C010C9449010C9449010C94610A44
:100010000C9449010C9449010C9449010C94490138
:100020000C9449010C9449010C94F50D0C942F0E7D
:100030000C9449010C9449010C9449010C94490118
:100040000C9449010C9449010C9449010C94490108
:100050000C9449010C9449010C9449010C944901F8
:100060000C9449010C9449010C9449010C944901E8
:100070000C9449010C9449010C9449010C944901D8
:100080000C944D0A0C9449010C9449010C944901BB
:100090000C9449010C9449010C9449010C944901B8
:1000A0000C9449010C9449010C9449019D0D950D46
:1000B0008D0D850D7D0D750D6D0D650D5D0D550D50
:1000C0004D0D450D3D0D350D2D0D250D1D0D150D40
:1000D0000D0D050DFD0CF50CED0CE50CDD0CD50C36
:1000E000CD0CC50CBD0CB50CAD0CA50C9D0C950C28
:1000F0008D0C850C7D0C750C6D0C650C5D0C550C18
:100100004D0C450C3D0C350C2D0C250C1D0C150C07
:100110000D0C050CFD0BF50BED0BE50BDD0BD50BFD
:10012000CD0BC50BBD0BB50BAD0BA50B9D0B084A3D
:10013000D73B3BCE016E84BCBFFDC12F3D6C7431FB
:100140009ABD56833DDA3D00C77F11BED9E4BB4C52
:100150003E916BAAAABE000000803F05A84CCDB21C
:10016000D44EB93836A9020C50B9918688083CA6FD
:10017000AAAA2ABE000000803F000A0020202063B7
:10018000757272656E7420616E676C653A000A0064
:100190006B64207465726D3A202020006469666685
:1001A0003A20202000000100003C02120002000062
:1001B000F9014300030000F5010401030904E10112
:1001C0001202030904D9010603030904CF01080838
:1001D00003340031003000000006034D00320000FF
:1001E0000012034A002E0020004600690065006EE0
:1001F0000065000000040309040902430002010035
:10020000C0320904000001020201000524001001AF
:100210000524010101042402060524060001070546
:10022000820310004009040100020A0000000705D3
:100230000302400000070584024000001201000292
:1002400002000010C0167A0400010102030100013F
:10025000C11201803601813611241FBECFEFDAE0D2
:10026000DEBFCDBF11E0A0E0B1E0E0EFF3E302C0FC
:1002700005900D92A632B107D9F721E0A6E2B1E0D0
:1002800001C01D92A839B207E1F70E94A2150C9493
:10029000F6190C94000008958F929F92AF92BF922E
:1002A000CF92DF92EF92FF92CF93DF93FC012085F4
:1002B000318584859585281B390B30934701209320
:1002C00046018CE991E00E947E0F80914601909159
:1002D00047010E94B20FC0914601D0914701809121
:1002E000440190914501BE01681B790B882777FD79
:1002F0008095982F0E949B1720E030E040EA51E45F
:100300000E94B4180E9468176B017C01882777FD52
:100310008095982F0E949B172DEC3CEC4CE45DE3FC
:100320000E94B4184B015C0160914201709143013D
:10033000882777FD8095982F0E949B1723E333E34E
:1003400043E75FE30E94B4189B01AC01C501B4010F
:100350000E9435160E9468174B015C01D092430140
:10036000C0924201662777276C1B7D0B882777FD9B
:100370008095982F0E949B172DEC3CEC4CE45FE39A
:100380000E94B4186B017C01B401882777FD809529
:10039000982F0E949B179B01AC01C701B6010E94D8
:1003A00035166B017C0180E991E00E947E0FC4014B
:1003B0000E94B20F8EE891E00E947E0F809146016C
:1003C00090914701909345018093440120E030E0F3
:1003D000A901C701B6010E94A91887FD14C05E9A41
:1003E0005F9A20E030E84BEB54E4C701B6010E946D
:1003F00035160E946D1770938B0060938A0070937E
:100400008D0060938C0020E030E0A901C701B601A7
:100410000E94FB1687FF14C05E985F98A7019601A3
:1004200060E070E88BEB94E40E9434160E946D1734
:1004300070938B0060938A0070938D0060938C00A2
:10044000DF91CF91FF90EF90DF90CF90BF90AF9072
:100450009F908F9008958F929F92AF92BF92CF926C
:10046000DF92EF92FF92CF93DF9300D000D0CDB711
:10047000DEB7209172013091730140917401509167
:10048000750180904C0190904D01A0904E01B0906C
:100490004F0160915A0170915B01882777FD80952B
:1004A000982F29833A834B835C830E949B17298171
:1004B0003A814B815C810E9434160E94681788271C
:1004C00077FD8095982F0E949B176B017C016091AE
:1004D0005C0170915D01882777FD8095982F0E94BF
:1004E0009B17A50194010E9434160E946817882763
:1004F00077FD8095982F0E949B17A70196010E9477
:10050000A81660936E0170936F01809370019093B1
:1005100071010F900F900F900F90DF91CF91FF908E
:10052000EF90DF90CF90BF90AF909F908F90089505
:10053000E1E8F0E080818061808380818860808351
:10054000A0E8B0E08C9182608C938C9181608C9358
:1005500080818B7F808380818D7F8083808181609B
:1005600080838C9180628C938C918F7E8C93269A61
:100570000895E0E8F0E080818860808380818B7F4F
:100580008083279A0895569A579A80ED97E0909322
:1005900089008093880010928B0010928A0010923C
:1005A0008D0010928C000895E1E9F0E08081846074
:1005B000808380818860808381E792E090939900B6
:1005C00080939800E1E7F0E0808182608083089565
:1005D000FC0120813181FB0140815181241B350BBD
:1005E00037FF03C0319521953109FC018281938148
:1005F000FB0142815381841B950B97FF03C09195AA
:1006000081959109229FB001239F700D700D1124D7
:10061000889F9001899F300D300D1124620F731F48
:10062000882777FD8095982F0E949B170E9421199B
:100630000E946817CB0108952F923F924F925F92CC
:100640006F927F928F929F92AF92BF92CF92DF92E2
:10065000EF92FF920F931F93CF93DF93CDB7DEB747
:10066000AC970FB6F894DEBF0FBECDBF80917A0174
:1006700090917B0190935F0180935E0180917C015A
:1006800090917D0190936101809360018091800140
:100690009091810190936301809362018091820126
:1006A000909183019093650180936401809186010C
:1006B00090918701909367018093660180918801F2
:1006C00090918901909369018093680180918C01D8
:1006D00090918D0190936B0180936A0180918E01BE
:1006E00090918F0190936D0180936C01EEE5F1E0A4
:1006F00080E090E0208131812F3F334031F422812E
:1007000033812F3F334009F401963496B1E0EE3641
:10071000FB0781F702970CF077C6EEE5F1E0FA836C
:10072000E9831A8A198A188A1F86A981BA818D914C
:100730009C918F3F934041F4E981FA8182819381BA
:100740008F3F934009F451C629893A8921303105F8
:1007500009F48AC60EE511E0212C312CD8018D91C7
:100760009C918F3F934039F4F801828193818F3FB0
:10077000934009F4CFC22F8538892216330609F435
:10078000C9C289899A890197F9F4809106019091EB
:100790000701A0910801B0910901898F9A8FAB8F51
:1007A000BC8F8091020190910301A0910401B0914E
:1007B000050189A39AA3ABA3BCA38EE5282E81E0F3
:1007C000382E18861F82C6C2B80189819A810E947C
:1007D000E802BC01882777FD8095982F0E949B171F
:1007E0006B017C0180901A0190901B01A0901C016C
:1007F000B0901D01409002015090030160900401EF
:1008000070900501A3019201C501B4010E94341644
:100810009B01AC01C701B6010E94A91887FD7AC2ED
:10082000A3019201C501B4010E9435169B01AC01E0
:10083000C701B6010E94FB1618160CF46BC2AEE598
:10084000B1E0BC83AB831E821D82EB81FC81808181
:1008500091818F3F934051F4AB81BC8112968D9171
:100860009C9113978F3F934009F446C2ED81FE811E
:100870002F853889E217F30709F43EC2E215F30524
:1008800009F43AC289899A89019709F443C26B81B4
:100890007C8189819A810E94E8026C016B817C8154
:1008A000C8010E94E8027C01B601882777FD809587
:1008B000982F0E949B174B015C01B701882777FD99
:1008C0008095982F0E949B179B01AC01C501B40134
:1008D0000E94FB1687FF10C2A981BA8112966D9102
:1008E0007C911397F80182819381681B790B88278B
:1008F00077FD8095982F0E949B179B01AC01A981E1
:10090000BA818D919C91F80160817181861B970B52
:10091000BC01882777FD8095982F29A73AA74BA778
:100920005CA70E949B17905829A53AA54BA55CA5EA
:100930000E94A81660939201709393018093940192
:10094000909395018CE791E00E947E0F6091920157
:1009500070919301809194019091950120E030E095
:1009600048EC52E40E94B4180E946817CB010E9420
:10097000B20F8AE791E00E947E0FD801CD90DC9003
:1009800011971296ED90FC901397E981FA8162819C
:1009900073816E197F09882777FD8095982F0E94B3
:1009A0009B172EE432E640E35FE30E94B4180E94F6
:1009B00068174B015C01A981BA818D919C918C19BA
:1009C0009D09BC01882777FD8095982F0E949B1771
:1009D0002EE432E640E35FE30E94B4180E946817F9
:1009E0006C0D7D1D7250882777FD8095982F0E9491
:1009F0009B176093720170937301809374019093BD
:100A000075018E0C9F1CB40160587140882777FDDA
:100A10008095982F0E949B1760934C0170934D0115
:100A200080934E0190934F018091720190917301D8
:100A3000A0917401B09175018F839887A987BA87B7
:100A40006091920170919301809194019091950130
:100A50000E94FF164B015C0160919201709193011D
:100A600080919401909195010E9417196B877C8762
:100A70008D879E87C0907201D0907301E0907401C1
:100A8000F0907501609192017091930180919401B1
:100A9000909195010E94FF16698F7A8F8B8F9C8FA2
:100AA00040904C0150904D0160904E0170904F016C
:100AB00060919201709193018091940190919501C0
:100AC0000E94171969A37AA38BA39CA320E030E0AE
:100AD00040E052E4C501B4010E94B4184B015C012E
:100AE00020E030E040EA50E46B857C858D859E8572
:100AF0000E94B4189B01AC01C501B4010E943516D7
:100B00004B015C01A7019601C701B6010E94351691
:100B1000298D3A8D4B8D5C8D0E94B4189B01AC01E0
:100B2000C501B4010E9434166B017C01A30192013E
:100B3000C301B2010E94351629A13AA14BA15CA1C3
:100B40000E94B4189B01AC01C701B6010E94341683
:100B50006093720170937301809374019093750197
:100B6000609192017091930180919401909195010F
:100B70000E94FF164B015C016091920170919301FC
:100B800080919401909195010E9417192B013C01CD
:100B9000C0904C01D0904D01E0904E01F0904F017B
:100BA00060919201709193018091940190919501CF
:100BB0000E94FF166B877C878D879E8760919201CC
:100BC0007091930180919401909195010E94171961
:100BD000698F7A8F8B8F9C8F20E030E040EA50E461
:100BE000C501B4010E94B4184B015C0120E030E063
:100BF00040E052E4C301B2010E94B4189B01AC0171
:100C0000C501B4010E9434164B015C01A701960195
:100C1000C701B6010E9435162B853C854D855E8542
:100C20000E94B4189B01AC01C501B4010E943416A6
:100C30004B015C012F81388549855A85CA01B9016C
:100C40000E943516298D3A8D4B8D5C8D0E94B4180B
:100C50009B01AC01C501B4010E94351660934C01A3
:100C600070934D0180934E0190934F01209192011A
:100C700030919301409194015091950163EC75EF8F
:100C800088E490E40E94341660939201709393017B
:100C9000809394019093950160917201709173011A
:100CA000809174019091750120E030E040E054E4BF
:100CB0000E943516609372017093730180937401E2
:100CC0009093750160914C0170914D0180914E019E
:100CD00090914F0120E030E040EC53E40E94351643
:100CE00060934C0170934D0180934E0190934F019E
:100CF000A1E0B0E0BA8BA98BED81FE813196FE8335
:100D0000ED832B813C812C5F3F4F3C832B833497B9
:100D100009F09BCD3FEF231A330A0C5F1F4F44E0CD
:100D20002416310409F01ACD30CDD10112968D91DF
:100D30009C9113978F3F9340B1F48F8198850196D2
:100D400098878F8394E0290E311CAF81B885149762
:100D500009F44BC3D1010D90BC91A02DBC87AB878A
:100D6000AF3FB34011F3EF81F8852F853889E21743
:100D7000F30719F389899A89019709F436C3B101F8
:100D800089819A810E94E802BC0180E090E00E9483
:100D900099176B017C0129A13AA14BA15CA1698D36
:100DA0007A8D8B8D9C8D0E9434169B01AC01C701FE
:100DB000B6010E94A91887FDC0CF29A13AA14BA175
:100DC0005CA1698D7A8D8B8D9C8D0E9435169B015F
:100DD000AC01C701B6010E94FB1618160CF4ADCF8A
:100DE000AEE5B1E0BC83AB831E821D82EB81FC814A
:100DF000808191818F3F934051F4AB81BC811296E9
:100E00008D919C9113978F3F934009F4DFC2ED8140
:100E1000FE812F853889E217F30709F4D7C28F8145
:100E20009885E817F90709F4D1C2A989BA891197F9
:100E300009F483CF6B817C8189819A810E94E802C9
:100E40008C018733910508F0A2C06B817C81C101C0
:100E50000E94E8028017910708F0B8C2E981FA8180
:100E6000008111818B859C85801B910BBC0188279B
:100E700077FD8095982F0E949B174B015C01A981FB
:100E8000BA8112966D907C901397F10182819381C3
:100E900086199709BC01882777FD8095982F0E94B5
:100EA0009B176B017C01C501B4019058A701960105
:100EB0000E94A8166093920170939301809394010D
:100EC00090939501609192017091930180919401AA
:100ED0009091950124EA30E74DE95FE30E943416D2
:100EE0006093920170939301809394019093950184
:100EF000609192017091930180919401909195017C
:100F000023EC35EF48E450EC0E94FB1687FF16C037
:100F1000609192017091930180919401909195015B
:100F200023EC35EF48EC50E40E94351660939201B3
:100F300070939301809394019093950127EE3BEF7A
:100F400049EE5EE3C501B4010E94B4180E9468171F
:100F5000060F171F1250B801882777FD8095982F2C
:100F60000E949B17609372017093730180937401C8
:100F70009093750127EE3BEF49EE5EE3C701B601A2
:100F80000E94B4180E946817660D771DA7C08733AA
:100F9000910509F41BC26B817C81C1010E94E802AA
:100FA0008017910708F012C2E981FA81808191814E
:100FB0002B853C85821B930BBC01882777FD809590
:100FC000982F0E949B174B015C01D10112960D9145
:100FD0001C911397E981FA8182819381801B910B87
:100FE000BC01882777FD8095982F0E949B176B0185
:100FF0007C01C501B4019058A70196010E94A81672
:101000006093920170939301809394019093950162
:10101000609192017091930180919401909195015A
:1010200024EA30E74DE95FE30E94341660939201B1
:101030007093930180939401909395016091920134
:1010400070919301809194019091950123EC35EF7B
:1010500048E450EC0E94FB1687FF16C06091920195
:1010600070919301809194019091950123EC35EF5B
:1010700048EC50E40E9435166093920170939301FE
:10108000809394019093950127EE3BEF49EE5EE348
:10109000C501B4010E94B4180E9468178B859C8515
:1010A000860F971F9250BC01882777FD8095982F57
:1010B0000E949B1760937201709373018093740177
:1010C0009093750127EE3BEF49EE5EE3C701B60151
:1010D0000E94B4180E946817600F711F6058714019
:1010E000882777FD8095982F0E949B1760934C016D
:1010F00070934D0180934E0190934F018091720146
:1011000090917301A0917401B09175018D8F9E8FA4
:10111000AF8FB8A360919201709193018091940177
:10112000909195010E94FF164B015C016091920124
:101130007091930180919401909195010E941719EB
:10114000698B7A8B8B8B9C8BC0907201D0907301D2
:10115000E0907401F090750160919201709193019B
:1011600080919401909195010E94FF166D8B7E8B6A
:101170008F8B988F40904C0150904D0160904E01A4
:1011800070904F0160919201709193018091940150
:10119000909195010E9417196DA37EA38FA398A724
:1011A00020E030E040E052E4C501B4010E94B418F0
:1011B0004B015C0120E030E040EA50E469897A8923
:1011C0008B899C890E94B4189B01AC01C501B401B4
:1011D0000E9435164B015C01A7019601C701B601BB
:1011E0000E9435162D893E894F89588D0E94B4186A
:1011F0009B01AC01C501B4010E9434166B017C0156
:10120000A3019201C301B2010E9435162DA13EA196
:101210004FA158A50E94B4189B01AC01C701B601AB
:101220000E9434166093720170937301809374016D
:101230009093750160919201709193018091940156
:10124000909195010E94FF164B015C016091920103
:101250007091930180919401909195010E941719CA
:101260002B013C01C0904C01D0904D01E0904E010B
:10127000F0904F01609192017091930180919401DF
:10128000909195010E94FF16698B7A8B8B8B9C8BBA
:1012900060919201709193018091940190919501D8
:1012A0000E9417196D8B7E8B8F8B988F20E030E01A
:1012B00040EA50E4C501B4010E94B4184B015C013E
:1012C00020E030E040E052E4C301B2010E94B418D3
:1012D0009B01AC01C501B4010E9434164B015C01B5
:1012E000A7019601C701B6010E94351629893A89DE
:1012F0004B895C890E94B4189B01AC01C501B40103
:101300000E9434166B017C012D8D3E8D4F8D58A1AE
:10131000CA01B9010E9435162D893E894F89588D21
:101320000E94B4189B01AC01C701B6010E9435169A
:1013300060934C0170934D0180934E0190934F0147
:101340002091920130919301409194015091950127
:1013500063EC75EF88E490E40E9434166093920188
:101360007093930180939401909395016091720121
:1013700070917301809174019091750120E030E0CB
:1013800040E054E40E94351660937201709373013B
:10139000809374019093750160914C0170914D019F
:1013A00080914E0190914F0120E030E040EC53E4F9
:1013B0000E94351660934C0170934D0180934E014D
:1013C00090934F01A1E0B0E0BA8BA98BED81FE8133
:1013D0003196FE83ED832B813C812C5F3F4F3C8314
:1013E0002B83349709F002CDA8CCEF85F88931968C
:1013F000F88BEF8729813A812C5F3F4F3A8329830D
:10140000349709F092C930C0809192019091930174
:10141000A0919401B09195018093920190939301D2
:10142000A0939401B0939501809172019091730102
:10143000A0917401B0917501809372019093730132
:10144000A0937401B093750180914C0190914D016E
:10145000A0914E01B0914F0180934C0190934D01AA
:10146000A0934E01B0934F01AC960FB6F894DEBF37
:101470000FBECDBFDF91CF911F910F91FF90EF90E5
:10148000DF90CF90BF90AF909F908F907F906F90A4
:101490005F904F903F902F9008951F920F920FB63C
:1014A0000F9211248F939F9381E090E09093970186
:1014B000809396019F918F910F900FBE0F901F9078
:1014C00018951F920F920FB60F9211242F933F93EE
:1014D0004F935F936F937F938F939F93AF93BF933C
:1014E000EF93FF936AE086E391E00E94D7106A9A37
:1014F0008EB194E089278EB9FF91EF91BF91AF91A2
:101500009F918F917F916F915F914F913F912F911B
:101510000F900FBE0F901F9018958091E80080FFEC
:10152000FCCF089581E08093D70080EA8093D800B3
:1015300082E189BD09B400FEFDCF80E98093D80027
:101540001092E00010924B01109248018CE08093C1
:10155000E2007894089580914B0108959FB7F89424
:1015600080914B01882339F083E08093E9008091DA
:10157000E80085FD03C09FBF8FEF08958091F100C3
:101580002091E80025FD03C02BE62093E8009FBFD3
:1015900008959FB7F89480914B01882331F083E040
:1015A0008093E9008091F20001C080E09FBF089520
:1015B00080914B01882371F08FB7F89493E090935A
:1015C000E9002BE69091E80095FF03C02093E80026
:1015D000F9CF8FBF089590914B01992371F09FB778
:1015E000F89424E02093E90020914901222349F056
:1015F0002091E80025FD03C09FBF8FEF0895109252
:1016000049012091E400275E34E04091E80045FD67
:1016100012C09FBF9091E400921304C081E08093B8
:101620004901EBCF90914B01992339F39FB7F8947F
:101630003093E900EACF8093F1008091E80085FDC6
:1016400003C08AE38093E80085E080934A019FBF4E
:1016500080E0089590914B019923D1F09FB7F894C1
:1016600024E02093E9002091E80025FD02C09FBFFF
:101670000FC08093F1008091E80085FD03C08AE3EC
:101680008093E80085E080934A019FBF80E0089541
:101690008FEF0895EF92FF921F93CF93DF937C011A
:1016A000CB0120914B01222371F0AFB7F89424E0D5
:1016B0002093E90020914901222349F02091E8007C
:1016C00025FD03C0AFBF8FEF42C210924901B4E0C5
:1016D000C0E4DAE315E0009709F437C22091E40092
:1016E000275E3091E80035FD12C0AFBF3091E400B5
:1016F000321304C081E080934901E5CF30914B0162
:10170000332309F3AFB7F894B093E900EACF2091FF
:10171000F2004C2F421B242F30E08217930708F46D
:10172000482F841B910950E04134510508F0FDC158
:101730004A5A5F4FFA010C948A19F70120812093CD
:10174000F10097012F5F3F4F7901F701208120932E
:10175000F10097012F5F3F4F7901F701208120931E
:10176000F10097012F5F3F4F7901F701208120930E
:10177000F10097012F5F3F4F7901F70120812093FE
:10178000F10097012F5F3F4F7901F70120812093EE
:10179000F10097012F5F3F4F7901F70120812093DE
:1017A000F10097012F5F3F4F7901F70120812093CE
:1017B000F10097012F5F3F4F7901F70120812093BE
:1017C000F10097012F5F3F4F7901F70120812093AE
:1017D000F10097012F5F3F4F7901F701208120939E
:1017E000F10097012F5F3F4F7901F701208120938E
:1017F000F10097012F5F3F4F7901F701208120937E
:10180000F10097012F5F3F4F7901F701208120936D
:10181000F10097012F5F3F4F7901F701208120935D
:10182000F10097012F5F3F4F7901F701208120934D
:10183000F10097012F5F3F4F7901F701208120933D
:10184000F10097012F5F3F4F7901F701208120932D
:10185000F10097012F5F3F4F7901F701208120931D
:10186000F10097012F5F3F4F7901F701208120930D
:10187000F10097012F5F3F4F7901F70120812093FD
:10188000F10097012F5F3F4F7901F70120812093ED
:10189000F10097012F5F3F4F7901F70120812093DD
:1018A000F10097012F5F3F4F7901F70120812093CD
:1018B000F10097012F5F3F4F7901F70120812093BD
:1018C000F10097012F5F3F4F7901F70120812093AD
:1018D000F10097012F5F3F4F7901F701208120939D
:1018E000F10097012F5F3F4F7901F701208120938D
:1018F000F10097012F5F3F4F7901F701208120937D
:10190000F10097012F5F3F4F7901F701208120936C
:10191000F10097012F5F3F4F7901F701208120935C
:10192000F10097012F5F3F4F7901F701208120934C
:10193000F10097012F5F3F4F7901F701208120933C
:10194000F10097012F5F3F4F7901F701208120932C
:10195000F10097012F5F3F4F7901F701208120931C
:10196000F10097012F5F3F4F7901F701208120930C
:10197000F10097012F5F3F4F7901F70120812093FC
:10198000F10097012F5F3F4F7901F70120812093EC
:10199000F10097012F5F3F4F7901F70120812093DC
:1019A000F10097012F5F3F4F7901F70120812093CC
:1019B000F10097012F5F3F4F7901F70120812093BC
:1019C000F10097012F5F3F4F7901F70120812093AC
:1019D000F10097012F5F3F4F7901F701208120939C
:1019E000F10097012F5F3F4F7901F701208120938C
:1019F000F10097012F5F3F4F7901F701208120937C
:101A0000F10097012F5F3F4F7901F701208120936B
:101A1000F10097012F5F3F4F7901F701208120935B
:101A2000F10097012F5F3F4F7901F701208120934B
:101A3000F10097012F5F3F4F7901F701208120933B
:101A4000F10097012F5F3F4F7901F701208120932B
:101A5000F10097012F5F3F4F7901F701208120931B
:101A6000F10097012F5F3F4F7901F701208120930B
:101A7000F10097012F5F3F4F7901F70120812093FB
:101A8000F10097012F5F3F4F7901F70120812093EB
:101A9000F10097012F5F3F4F7901F70120812093DB
:101AA000F10097012F5F3F4F7901F70120812093CB
:101AB000F10097012F5F3F4F7901F70120812093BB
:101AC000F10097012F5F3F4F7901F70120812093AB
:101AD000F10097012F5F3F4F7901F701208120939B
:101AE000F10097012F5F3F4F7901F701208120938B
:101AF000F10097012F5F3F4F7901F701208120937B
:101B0000F10097012F5F3F4F7901F701208120936A
:101B1000F10097012F5F3F4F7901F701208120935A
:101B2000F10097012F5F3F4F7901F701208120934A
:101B3000F10097012F5F3F4F79012091E80025FFC9
:101B4000D093E80010934A01C6CDAFBF80E0DF918B
:101B5000CF911F91FF90EF9008958FB7F8949091D7
:101B60004A01992341F094E09093E9009AE390931D
:101B7000E80010924A018FBF0895809122010895D4
:101B80008091230108958091240108958091480156
:101B900008959FB7F89420914B01222339F022E059
:101BA0002093E9003091E80035FD03C09FBF8FEF1F
:101BB000089531EA3093F10030E23093F100109251
:101BC000F1001092F1001092F1001092F1002093B8
:101BD000F1001092F1008093F1001092F1008AE37D
:101BE0008093E8009FBF80E008951F920F920FB688
:101BF0000F9211248F939F938091E1001092E10046
:101C000083FF11C01092E90091E09093EB001092D5
:101C1000EC0092E19093ED0098E09093F000109228
:101C20004B011092480182FF13C080914B01882321
:101C300079F080914A01882359F0815080934A01BC
:101C4000811106C084E08093E9008AE38093E80074
:101C50009F918F910F900FBE0F901F9018951F921C
:101C60000F920FB60F921124EF92FF920F931F93D2
:101C70002F933F934F935F936F937F938F939F9394
:101C8000AF93BF93EF93FF93CF93DF931F92CDB7A3
:101C9000DEB71092E9008091E80083FF14C19091B3
:101CA000F1008091F1003091F1002091F100E32EDC
:101CB000F12CF22A0091F1002091F10010E0122B9A
:101CC0002091F1006091F10032EF3093E80086300E
:101CD00009F046C036E085EA91E0FC014591549157
:101CE0004E155F0539F4FC01329645915491401729
:101CF000510721F00796315081F7E5C0FC01349679
:101D000045915491FC013696849130E0362B2F3F5B
:101D1000310519F010F02FEF30E0281708F4822F6A
:101D20003EEF9091E800292F2570D9F392FDCEC0A7
:101D3000982F813108F090E1FA01292F222331F008
:101D400064916093F10021503196F8CF490F511DF5
:101D5000891B3093E8008111E4CF903111F3B6C0B4
:101D6000853051F48EEF8093E8000E948D0A8E2D0D
:101D700080688093E300AAC0893059F5911180C032
:101D8000E0924B011092480110924A018EEF80932D
:101D9000E80041E08EE492E04093E9009C012F5F6F
:101DA0003F4FFC0154915093EB00552359F0F9013A
:101DB00024912093EC009C012D5F3F4F319684913C
:101DC0008093ED004F5F453011F0C901E5CF8EE102
:101DD00075C0883051F4903809F052C00E948D0AC5
:101DE00080914B018093F10047C0813279F4913AA0
:101DF00009F046C00E948D0AEEE1F1E081918093E6
:101E0000F10081E0E532F807C9F736C0803299F475
:101E10009132B1F58091E80082FFFCCFEEE1F1E074
:101E20008091F100819381E0E532F807C9F78BEFEB
:101E30008093E80021C0823241F4913209F043C01E
:101E4000E09248010E948D0A17C0811119C0998340
:101E50000E948D0A9981923851F40093E900809193
:101E6000EB0085FB882780F91092E90001C080E033
:101E70008093F1001092F1008EEF8093E80026C06D
:101E8000282F2D7F2130F9F49230E9F4EF28D9F48E
:101E90000F779FEF900F9430B0F49EEF9093E8008F
:101EA0000093E900833079F089E18093EB0081E0D1
:101EB00090E0002E01C0880F0A94EAF78093EA00B0
:101EC0001092EA0003C081E28093EB000F90DF9153
:101ED000CF91FF91EF91BF91AF919F918F917F91A2
:101EE0006F915F914F913F912F911F910F91FF90B3
:101EF000EF900F900FBE0F901F9018951F93CF93E8
:101F0000DF93EC01FE011491112351F01A3019F402
:101F10008DE00E94EB0A812F0E94EB0A2196F2CFFE
:101F2000DF91CF911F9108958A3010F490E301C0A2
:101F300097E3890F0C94EB0ACF93C82F82958F708B
:101F40000E94940F8C2F8F70CF910C94940FCF938D
:101F5000C82F892F0E949C0F8C2FCF910C949C0F1F
:101F60000C949C0FEF92FF920F931F93CF93DF93EC
:101F7000CDB7DEB727970FB6F894DEBF0FBECDBF43
:101F80008E010F5F1F4F27E0F80111922A95E9F7A4
:101F90004AE0B8010E9490197E01F8E0EF0EF11CB2
:101FA000F80181918F0181110E94EB0A0E151F0526
:101FB000B9F727960FB6F894DEBF0FBECDBFDF91FD
:101FC000CF911F910F91FF90EF900895EF92FF92A4
:101FD0000F931F93CF93DF9300D000D000D0CDB7E5
:101FE000DEB78E010F5F1F4F26E0F80111922A9590
:101FF000E9F74AE0B8010E94CC197E01F6E0EF0E45
:10200000F11CF80181918F0181110E94EB0A0E15DC
:102010001F05B9F726960FB6F894DEBF0FBECDBFE9
:10202000DF91CF911F910F91FF90EF900895EF9264
:10203000FF920F931F93CF93DF93CDB7DEB72B970C
:102040000FB6F894DEBF0FBECDBF8E010F5F1F4FDE
:102050002BE0F80111922A95E9F72AE0A8010E94E5
:102060009B197E01FCE0EF0EF11CF80181918F01BC
:1020700081110E94EB0A0E151F05B9F72B960FB6BA
:10208000F894DEBF0FBECDBFDF91CF911F910F91AE
:10209000FF90EF900895EF92FF920F931F93CF93CD
:1020A000DF93CDB7DEB72B970FB6F894DEBF0FBE28
:1020B000CDBF8E010F5F1F4F2BE0F80111922A95C3
:1020C000E9F72AE0A8010E94AA197E01FBE0EF0EC1
:1020D000F11CF80181918F0181110E94EB0A0E150C
:1020E0001F05B9F72B960FB6F894DEBF0FBECDBF14
:1020F000DF91CF911F910F91FF90EF900895CF93B3
:10210000DF9300D01F92CDB7DEB74B836A838983FC
:102110000E94731194EA9093BC0089816A814B817B
:102120009091BC0097FFFCCF90E59093BB0094E8A2
:102130009093BC009091BC0097FFFCCF9091B900A8
:10214000987F903229F484E98093BC0080E029C014
:1021500091E09093BB0094E89093BC009091BC00F8
:1021600097FFFCCF8093BB0084E88093BC008091F4
:10217000BC0087FFFCCF6093BB0084E88093BC0069
:102180008091BC0087FFFCCF4093BB0084E8809324
:10219000BC008091BC0087FFFCCF84E98093BC0029
:1021A00081E00F900F900F90DF91CF91089524EA76
:1021B0002093BC002091BC0027FFFCCF21E5209399
:1021C000BB0024E82093BC002091BC0027FFFCCF7B
:1021D0002091B900287F2834A9F024EC2093BC007A
:1021E0002091BC0027FFFCCF2091BB0026130AC022
:1021F000FC0120E030E0772767FD709561507109A0
:1022000044EC0EC084E98093BC0080E008955091B6
:10221000BC0057FFFCCF5091BB0051932F5F3F4F45
:10222000261737071CF44093BC00F1CF44E84093D5
:10223000BC004091BC0047FFFCCF4091BB00FC01BB
:10224000E20FF31F408384E98093BC0081E008958E
:10225000F89494EA9093BC009091BC0097FFFCCF57
:1022600090E59093BB0094E89093BC009091BC00E3
:1022700097FFFCCF9091B900987F903231F484E9B8
:102280008093BC00789480E0089593E09093BB0025
:1022900094E89093BC009091BC0097FFFCCF809392
:1022A000BB0084E88093BC008091BC0087FFFCCF1A
:1022B000FB01552747FD509524E8CF01861B970B5E
:1022C0008417950754F481918093BB002093BC0040
:1022D0008091BC0087FFFCCFF0CF84E98093BC00E5
:1022E000789481E00895589A599A5A9A8CE080938C
:1022F000B800E9E6F0E080818062808380818F7E93
:102300008083EA9A7894089584E88093BC00809151
:10231000BC0087FFFCCF8091BB00089584E98093C7
:10232000BC00089520E030E08091BC0087FD06C02D
:102330002F5F3F4F293E83E03807B1F781E0283E09
:10234000334009F480E008958093BB0084E88093D3
:10235000BC000E949211882321F08091B900887FEF
:10236000089580E008951F93CF93DF931F92CDB718
:10237000DEB7182F84EA8093BC0069830E94921113
:102380006981811104C094E99093BC0014C0812F2D
:10239000880F662331F08F5F0E94A411883451F4B6
:1023A00004C00E94A411803229F484E98093BC0007
:1023B00080E001C081E00F90DF91CF911F910895DF
:1023C000CF93DF93C82FD62F60E00E94B3118823EC
:1023D00091F08D2F0E94A411882369F084E98093E5
:1023E000BC0061E08C2F0E94B311882321F0DF91A3
:1023F000CF910C94841180E0DF91CF910895CF9319
:10240000DF93D62FC42F60E00E94B311811102C068
:1024100080E00EC08D2F0E94A4118823C9F38C2F59
:102420000E94A4118823A1F384E98093BC0081E079
:10243000DF91CF91089520E030E08091BC0087FDCE
:1024400006C02F5F3F4F293E83E03807B1F781E098
:10245000283E334009F480E008958093BB0084E86F
:102460008093BC000E941B12882319F08091B90050
:10247000887F0895CF93C82F84EA8093BC000E9480
:102480001B12882361F08C2F880F0E942D1280323E
:1024900029F484E98093BC0080E001C081E0CF9101
:1024A00008950E94731188E50E943A12811102C0BA
:1024B00080E0089580E30E942D128823C9F381E013
:1024C0000E942D128823A1F384E98093BC008FE33E
:1024D0009CE90197F1F700C0000088E50E943A12DC
:1024E000882331F380E00E942D12882309F380E0D5
:1024F0000E942D128823E1F280E00E942D12882391
:10250000B9F280E00E942D12882391F280E00E94AF
:102510002D12882369F280E00E942D12882341F257
:1025200080E00E942D12882319F280E90E942D126A
:10253000882309F4BDCF84E98093BC008FE39CE934
:102540000197F1F700C0000088E50E943A12882345
:1025500009F4AECF87E00E942D12882309F4A8CF9A
:1025600080E00E942D12882309F4A2CF81E40E940A
:102570002D12882309F49CCF84E98093BC008FE35B
:102580009CE90197F1F700C0000088E50E943A122B
:10259000882309F48DCF8AE10E942D12882309F443
:1025A00087CF80E40E942D12882309F481CF80E038
:1025B0000E942D12882309F47BCF84E98093BC000C
:1025C0008FE39CE90197F1F700C0000088E50E94C5
:1025D0003A12882309F46CCF83E30E942D128823DA
:1025E00009F466CF83E00E942D12882309F460CF9E
:1025F00084E98093BC008FE39CE90197F1F700C068
:10260000000088E50E943A12882309F451CF80E344
:102610000E942D12882309F44BCF88E00E942D12CE
:10262000882309F445CF84E98093BC008FE39CE9BB
:102630000197F1F700C0000081E00895CF93C82F03
:1026400084EA8093BC000E941B12882369F08C2FBF
:10265000880F8F5F0E942D12883429F484E98093BB
:10266000BC0080E001C081E0CF910895EF92FF921D
:102670000F931F93CF93DF93CDB7DEB760970FB65D
:10268000F894DEBF0FBECDBF7C018E010F5F1F4FE0
:1026900080E1F80111928A95E9F788E50E943A12E3
:1026A000811102C080E05EC086E30E942D12882363
:1026B000C9F384E98093BC00F5E8FA95F1F70000CE
:1026C00088E50E941E13882369F3F8019E01205FAC
:1026D0003F4F94EC9093BC008091BC0087FFFCCFEF
:1026E0008091BB008193E217F307A1F784E8809300
:1026F000BC008091BC0087FFFCCF8091BB00888B21
:1027000084E98093BC00DE01149687016C91762FDA
:102710007073AD0142505109FA01808190E0F0E1FF
:102720007F9F800D911D1124F80191838083762F66
:10273000707C4F5F5F4FFA01808190E0F4E07F9FF3
:10274000800D911D1124F801938382836F70862F71
:1027500090E09583848313960A5F1F4FA217B307F7
:10276000A9F681E060960FB6F894DEBF0FBECDBF2C
:10277000DF91CF911F910F91FF90EF90089584E921
:102780008093BC000895E1E6F0E080E88083108249
:102790008098819884988598869887985498ECE7D3
:1027A000F0E080818F778083808180648083AAE7D6
:1027B000B0E08C9184608C938C9182608C938C912E
:1027C00081608C93EEE7F0E080818160808380817E
:1027D0008260808380818061808380818062808349
:1027E000808180648083808180688083EDE7F0E071
:1027F0008081816080838C9180628C930895FC013C
:1028000080917A008F7780937A0080917B008F7D12
:1028100080937B0080917C008B7F80937C008091F3
:102820007C008D7F80937C0080917C008E7F8093E4
:102830007C0080917A00806880937A0080917A0091
:10284000806480937A0080917A0084FFFCCF80912D
:102850007800909179009183808380917A008F77BE
:1028600080937A0080917B008F7D80937B008091A4
:102870007C008B7F80937C0080917C008D7F809397
:102880007C0080917C00816080937C0080917A0044
:102890008F7E80937A0080917A00806880937A009E
:1028A00080917A00806480937A0080917A0084FF1E
:1028B000FCCF8091780090917900938382838091FE
:1028C0007A008F7780937A0080917B008F7D809350
:1028D0007B0080917C00846080937C0080917C00F0
:1028E0008D7F80937C0080917C008E7F80937C0024
:1028F00080917A008F7E80937A0080917A00806840
:1029000080937A0080917A00806480937A0080912D
:102910007A0084FFFCCF80917800909179009583B4
:10292000848380917A008F7780937A0080917B00F6
:102930008F7D80937B0080917C00846080937C00FD
:1029400080917C008D7F80937C0080917C008160F1
:1029500080937C0080917A008F7E80937A008091B2
:102960007A00806880937A0080917A0080648093F6
:102970007A0080917A0084FFFCCF8091780090915A
:1029800079009783868380917A008F7780937A008D
:1029900080917B008F7D80937B0080917C008460A0
:1029A00080937C0080917C00826080937C00809189
:1029B0007C008E7F80937C0080917A008F7E809354
:1029C0007A0080917A00806880937A0080917A0002
:1029D000806480937A0080917A0084FFFCCF80919C
:1029E0007800909179009187808780917A008F7725
:1029F00080937A0080917B008F7D80937B00809113
:102A00007C00846080937C0080917C008260809355
:102A10007C0080917C00816080937C0080917A00B2
:102A20008F7E80937A0080917A00806880937A000C
:102A300080917A00806480937A0080917A0084FF8C
:102A4000FCCF809178009091790093878287809164
:102A50007A008F7780937A0080917B0080628093E8
:102A60007B0080917C008B7F80937C0080917C0038
:102A70008D7F80937C0080917C008E7F80937C0092
:102A800080917A008F7E80937A0080917A008068AE
:102A900080937A0080917A00806480937A0080919C
:102AA0007A0084FFFCCF809178009091790095871F
:102AB000848780917A008F7780937A0008958F922F
:102AC0009F92AF92BF92CF92DF92EF92FF920F93BD
:102AD0001F9369017A01861B970B28EE33E0829FD2
:102AE000B001839F700D929F700D1124882777FD90
:102AF0008095982F0E949B174B015C0120E030E0ED
:102B0000A901C701B6010E94B4189B01AC01C5011F
:102B1000B4010E9435160E946817F8017183608322
:102B20001F910F91FF90EF90DF90CF90BF90AF90EB
:102B30009F908F90089521E0811592400CF020E045
:102B4000822F089580E8809361001092610078944C
:102B50006A9A72980E9451120E9498020E94B902C9
:102B60000E94C3020E94C3130E94920A0E94731122
:102B70000E94D4026A9A729A80E885BF85BFC2E03B
:102B8000D0E0D0935901C0935801809158019091A1
:102B900059010497C1F08091580190915901039710
:102BA00091F08091580190915901059761F08091C1
:102BB000580190915901069731F0809158019091F8
:102BC0005901079749F410928B0010928A001092D5
:102BD0008D0010928C00D5CF8091580190915901B1
:102BE000019761F56E9A76982FEF89E698E121506A
:102BF00080409040E1F700C000006E9A769A2FEF77
:102C000089E698E1215080409040E1F700C0000043
:102C10006E9A76982FEF89E698E121508040904097
:102C2000E1F700C000006E9A769A2FEF89E698E1EE
:102C3000215080409040E1F700C000008091580191
:102C400090915901029709F09CCF88E291E00E948F
:102C5000FF138AE791E00E9436130E941C0388E26A
:102C600091E00E944C018DCF5058BB27AA270ED06F
:102C700025C2EED130F0F3D120F031F49F3F11F4B2
:102C80001EF4BEC10EF4E095E7FBB4C1E92F38D2C3
:102C900080F3BA17620773078407950718F071F479
:102CA0009EF550C20EF4E0950B2EBA2FA02D0B010D
:102CB000B90190010C01CA01A0011124FF27591B81
:102CC00099F0593F50F4503E68F11A16F040A22F87
:102CD000232F342F4427585FF3CF469537952795F8
:102CE000A795F0405395C9F77EF41F16BA0B620BF7
:102CF000730B840BBAF09150A1F0FF0FBB1F661F3E
:102D0000771F881FC2F70EC0BA0F621F731F841F80
:102D100048F4879577956795B795F7959E3F08F0A6
:102D2000B3CF9395880F08F09927EE0F9795879565
:102D300008958ED158F080E891E009F49EEF8FD18C
:102D400028F040E851E059F45EEF09C059C1FAC1DA
:102D5000E92FE078D5D168F3092E052AC1F32617AB
:102D600037074807590738F00E2E07F8E02569F0B5
:102D7000E025E0640AC0EF6307F8009407FADB017E
:102D8000B9019D01DC01CA01AD01EF9348D096D194
:102D90000AD05F91552331F02BED3FE049E450FD1F
:102DA00049EC63CF0895DF93DD27B92FBF7740E863
:102DB0005FE31616170648075B0710F4D92FCDD12D
:102DC0009F938F937F936F937AD2EEE2F1E01BD1C2
:102DD00075D12F913F914F915F91D2D1DD2349F071
:102DE0009058A2EA2AED3FE049EC5FE3D0785D27F6
:102DF0004DDFDF9163C1DAD008F481E0089537D167
:102E0000E3956DC12CD140F023D130F021F45F3F28
:102E100019F0F0C0511197C1F3C072D198F3992302
:102E2000C9F35523B1F3951B550BBB27AA2762178E
:102E30007307840738F09F5F5F4F220F331F441FD3
:102E4000AA1FA9F333D00E2E3AF0E0E830D091500B
:102E50005040E695001CCAF729D0FE2F27D0660FF8
:102E6000771F881FBB1F261737074807AB07B0E837
:102E700009F0BB0B802DBF01FF2793585F4F2AF04D
:102E80009E3F510568F0B6C05EC15F3FECF3983ECF
:102E9000DCF3869577956795B795F7959F5FC9F7AA
:102EA000880F911D9695879597F90895E1E0660F33
:102EB000771F881FBB1F621773078407BA0720F0AC
:102EC000621B730B840BBA0BEE1F88F7E095089515
:102ED00004D06894B11137C108951AD188F09F5772
:102EE00090F0B92F9927B751A0F0D1F0660F771F56
:102EF000881F991F1AF0BA95C9F712C0B13081F036
:102F000021D1B1E008951EC1672F782F8827B85FBF
:102F100039F0B93FCCF3869577956795B395D9F796
:102F20003EF490958095709561957F4F8F4F9F4FA0
:102F30000895E89409C097FB3EF4909580957095AC
:102F400061957F4F8F4F9F4F9923A9F0F92F96E9F5
:102F5000BB279395F695879577956795B795F1116A
:102F6000F8CFFAF4BB0F11F460FF1BC06F5F7F4F07
:102F70008F4F9F4F16C0882311F096E911C0772319
:102F800021F09EE8872F762F05C0662371F096E822
:102F9000862F70E060E02AF09A95660F771F881FF1
:102FA000DAF7880F9695879597F90895990F000895
:102FB000550FAA0BE0E8FEEF16161706E807F9070B
:102FC000C0F012161306E407F50798F0621B730BA6
:102FD000840B950B39F40A2661F0232B242B252B27
:102FE00021F408950A2609F4A140A6958FEF811DCA
:102FF000811D089597F99F6780E870E060E008956B
:103000009FEF80EC0895DF93CF931F930F93FF9270
:10301000EF92DF927B018C01689405C0DA2EEF01FC
:10302000AFD0FE01E894A591259135914591559138
:10303000AEF3EF012BDEFE019701A801DA9479F7D8
:10304000DF90EF90FF900F911F91CF91DF91089546
:1030500000240A9416161706180609060895002477
:103060000A9412161306140605060895C9CF50D007
:10307000E8F3E894E0E0BB279F57F0F02AED3FE04B
:1030800049EC06C0EE0FBB0F661F771F881F28F0A4
:10309000B23A62077307840728F0B25A620B730BC7
:1030A000840BE3959A9572F7803830F49A95BB0FAC
:1030B000661F771F881FD2F7904808C1092E039416
:1030C000000C11F4882352F0BB0F40F4BF2B11F415
:1030D00060FF04C06F5F7F4F8F4F9F4F0895EF9346
:1030E000E0FF06C0A2EA2AED3FE049EC5FEBCEDD4F
:1030F000E5DF0F90039401FC9058EBE5F1E0F9C097
:1031000057FD9058440F551F59F05F3F71F0479598
:10311000880F97FB991F61F09F3F79F0879508957D
:10312000121613061406551FF2CF4695F1DF08C09C
:10313000161617061806991FF1CF869571056105B9
:1031400008940895E894BB2766277727CB0197F961
:1031500008952CDF08F48FEF08959B01AC0160E027
:1031600070E080E89FE3AEC00BD0A8CF71DF28F0FD
:1031700076DF18F0952309F03DCF42CF1124E3CF3D
:10318000BFDFA0F3959FD1F3950F50E0551F629FCD
:10319000F001729FBB27F00DB11D639FAA27F00DB0
:1031A000B11DAA1F649F6627B00DA11D661F829FD7
:1031B0002227B00DA11D621F739FB00DA11D621FBC
:1031C000839FA00D611D221F749F3327A00D611DD9
:1031D000231F849F600D211D822F762F6A2F1124BB
:1031E0009F5750408AF0E1F088234AF0EE0FFF1F0E
:1031F000BB1F661F771F881F91505040A9F79E3F45
:10320000510570F0F7CE9FCF5F3FECF3983EDCF3B3
:10321000869577956795B795F795E7959F5FC1F781
:10322000FE2B880F911D9695879597F908959F938A
:103230001EDF0F9007FCEE5F52CF11F40EF4E0CECC
:1032400043C066DFD0F39923D9F3CEF39F57550BD4
:1032500087FF48D00024A0E640EA900180585695A8
:10326000979528F4805C660F771F881F20F026173B
:103270003707480730F4621B730B840B2029312970
:103280004A2BA69517940794202531254A2758F7ED
:10329000660F771F881F20F026173707480730F47E
:1032A000620B730B840B200D311D411DA09581F71E
:1032B000B901842F9158880F9695879508959B01A1
:1032C000AC0152CFAADDFACE9F3F31F0915020F4ED
:1032D000879577956795B795880F911D96958795F2
:1032E00097F9089591505040660F771F881FD2F7C5
:1032F00008959F938F937F936F93FF93EF939B0119
:10330000AC0132DFEF91FF917EDE2F913F914F9123
:103310005F912ACFEE0FFF1F0590F491E02D0994E5
:10332000BB274A3031F4992322F4BDE29095819570
:103330009F4F0C94CD19BB272A3051F4992342F4A6
:10334000BDE290958095709561957F4F8F4F9F4F0F
:103350000C94AB19BB27FA01A62F621771058105E2
:103360009105330B30FB66F0AA27660F771F881F85
:10337000991FAA1FA21710F0A21B63953850A9F736
:10338000A05DAA3308F0A95DA19336F7B111B193FE
:103390001082CA010C94E619BB27FB015527AA2706
:1033A000880F991FAA1FA41710F0A41B83955051D2
:1033B000B9F7A05DAA3308F0A95DA193009779F74A
:1033C000B111B1931192CB010C94E619DC01FC010F
:1033D000672F71917723E1F7329704C07C916D9349
:1033E00070836291AE17BF07C8F30895F894FFCFBA
:1033F00001009A99794000008C4200009C42000034
:10340000704200002042000040420000B04200E153
:06341000000000000800AE
:00000001FF
